{
  "contractName": "Kryptogram",
  "abi": [
    {
      "inputs": [],
      "stateMutability": "nonpayable",
      "type": "constructor"
    },
    {
      "anonymous": false,
      "inputs": [
        {
          "indexed": false,
          "internalType": "uint256",
          "name": "id",
          "type": "uint256"
        },
        {
          "indexed": false,
          "internalType": "string",
          "name": "imgHash",
          "type": "string"
        },
        {
          "indexed": false,
          "internalType": "string",
          "name": "description",
          "type": "string"
        },
        {
          "indexed": false,
          "internalType": "uint256",
          "name": "createdTime",
          "type": "uint256"
        },
        {
          "indexed": false,
          "internalType": "uint256",
          "name": "tipAmount",
          "type": "uint256"
        },
        {
          "indexed": true,
          "internalType": "address",
          "name": "author",
          "type": "address"
        }
      ],
      "name": "PostCreated",
      "type": "event"
    },
    {
      "anonymous": false,
      "inputs": [
        {
          "indexed": false,
          "internalType": "uint256",
          "name": "id",
          "type": "uint256"
        },
        {
          "indexed": false,
          "internalType": "string",
          "name": "imgHash",
          "type": "string"
        },
        {
          "indexed": false,
          "internalType": "uint256",
          "name": "tippedTime",
          "type": "uint256"
        },
        {
          "indexed": false,
          "internalType": "uint256",
          "name": "amountTipped",
          "type": "uint256"
        },
        {
          "indexed": true,
          "internalType": "address",
          "name": "donor",
          "type": "address"
        },
        {
          "indexed": false,
          "internalType": "address",
          "name": "author",
          "type": "address"
        }
      ],
      "name": "PostTipped",
      "type": "event"
    },
    {
      "inputs": [],
      "name": "name",
      "outputs": [
        {
          "internalType": "string",
          "name": "",
          "type": "string"
        }
      ],
      "stateMutability": "view",
      "type": "function",
      "constant": true
    },
    {
      "inputs": [
        {
          "internalType": "uint256",
          "name": "",
          "type": "uint256"
        }
      ],
      "name": "posts",
      "outputs": [
        {
          "internalType": "uint256",
          "name": "id",
          "type": "uint256"
        },
        {
          "internalType": "string",
          "name": "imgHash",
          "type": "string"
        },
        {
          "internalType": "string",
          "name": "description",
          "type": "string"
        },
        {
          "internalType": "uint256",
          "name": "createdTime",
          "type": "uint256"
        },
        {
          "internalType": "uint256",
          "name": "tipAmount",
          "type": "uint256"
        },
        {
          "internalType": "address",
          "name": "author",
          "type": "address"
        }
      ],
      "stateMutability": "view",
      "type": "function",
      "constant": true
    },
    {
      "inputs": [],
      "name": "postsCount",
      "outputs": [
        {
          "internalType": "uint256",
          "name": "",
          "type": "uint256"
        }
      ],
      "stateMutability": "view",
      "type": "function",
      "constant": true
    },
    {
      "inputs": [
        {
          "internalType": "string",
          "name": "_imgHash",
          "type": "string"
        },
        {
          "internalType": "string",
          "name": "_description",
          "type": "string"
        }
      ],
      "name": "createPost",
      "outputs": [],
      "stateMutability": "nonpayable",
      "type": "function"
    },
    {
      "inputs": [
        {
          "internalType": "uint256",
          "name": "_id",
          "type": "uint256"
        }
      ],
      "name": "tipPostAuthor",
      "outputs": [],
      "stateMutability": "payable",
      "type": "function",
      "payable": true
    }
  ],
  "bytecode": "0x60806040526040518060400160405280600a81526020017f4b727970746f6772616d0000000000000000000000000000000000000000000081525060009080519060200190620000519291906200006b565b5060006001553480156200006457600080fd5b506200017f565b82805462000079906200014a565b90600052602060002090601f0160209004810192826200009d5760008555620000e9565b82601f10620000b857805160ff1916838001178555620000e9565b82800160010185558215620000e9579182015b82811115620000e8578251825591602001919060010190620000cb565b5b509050620000f89190620000fc565b5090565b5b8082111562000117576000816000905550600101620000fd565b5090565b7f4e487b7100000000000000000000000000000000000000000000000000000000600052602260045260246000fd5b600060028204905060018216806200016357607f821691505b6020821081036200017957620001786200011b565b5b50919050565b610e8e806200018f6000396000f3fe60806040526004361061004a5760003560e01c806306fdde031461004f5780630b1e7f831461007a5780632dcbe545146100bc578063392338f5146100e7578063a73e62fd14610110575b600080fd5b34801561005b57600080fd5b5061006461012c565b604051610071919061079e565b60405180910390f35b34801561008657600080fd5b506100a1600480360381019061009c919061080a565b6101ba565b6040516100b396959493929190610887565b60405180910390f35b3480156100c857600080fd5b506100d1610326565b6040516100de91906108f6565b60405180910390f35b3480156100f357600080fd5b5061010e60048036038101906101099190610a46565b61032c565b005b61012a6004803603810190610125919061080a565b610526565b005b6000805461013990610aed565b80601f016020809104026020016040519081016040528092919081815260200182805461016590610aed565b80156101b25780601f10610187576101008083540402835291602001916101b2565b820191906000526020600020905b81548152906001019060200180831161019557829003601f168201915b505050505081565b60026020528060005260406000206000915090508060000154908060010180546101e390610aed565b80601f016020809104026020016040519081016040528092919081815260200182805461020f90610aed565b801561025c5780601f106102315761010080835404028352916020019161025c565b820191906000526020600020905b81548152906001019060200180831161023f57829003601f168201915b50505050509080600201805461027190610aed565b80601f016020809104026020016040519081016040528092919081815260200182805461029d90610aed565b80156102ea5780601f106102bf576101008083540402835291602001916102ea565b820191906000526020600020905b8154815290600101906020018083116102cd57829003601f168201915b5050505050908060030154908060040154908060050160009054906101000a900473ffffffffffffffffffffffffffffffffffffffff16905086565b60015481565b6000825111610370576040517f08c379a000000000000000000000000000000000000000000000000000000000815260040161036790610b6a565b60405180910390fd5b60008151116103b4576040517f08c379a00000000000000000000000000000000000000000000000000000000081526004016103ab90610bd6565b60405180910390fd5b600160008154809291906103c790610c25565b91905055506040518060c001604052806001548152602001838152602001828152602001428152602001600081526020013373ffffffffffffffffffffffffffffffffffffffff1681525060026000600154815260200190815260200160002060008201518160000155602082015181600101908051906020019061044d929190610662565b50604082015181600201908051906020019061046a929190610662565b50606082015181600301556080820151816004015560a08201518160050160006101000a81548173ffffffffffffffffffffffffffffffffffffffff021916908373ffffffffffffffffffffffffffffffffffffffff1602179055509050503373ffffffffffffffffffffffffffffffffffffffff167f8f18cd88b13c06184c3a67d9b79c75dc1e11607408671185f1abce809c68b649600154848442600060405161051a959493929190610cb2565b60405180910390a25050565b60008111801561053857506001548111155b61054157600080fd5b600060026000838152602001908152602001600020905060008160050160009054906101000a900473ffffffffffffffffffffffffffffffffffffffff1690508073ffffffffffffffffffffffffffffffffffffffff166108fc349081150290604051600060405180830381858888f193505050501580156105c7573d6000803e3d6000fd5b503482600401546105d89190610d13565b82600401819055503373ffffffffffffffffffffffffffffffffffffffff167f83e4182a45481b3fedc2a9fa23f58fc35792318d88e1dff50acbde8517005067848460010142348760050160009054906101000a900473ffffffffffffffffffffffffffffffffffffffff16604051610655959493929190610dfe565b60405180910390a2505050565b82805461066e90610aed565b90600052602060002090601f01602090048101928261069057600085556106d7565b82601f106106a957805160ff19168380011785556106d7565b828001600101855582156106d7579182015b828111156106d65782518255916020019190600101906106bb565b5b5090506106e491906106e8565b5090565b5b808211156107015760008160009055506001016106e9565b5090565b600081519050919050565b600082825260208201905092915050565b60005b8381101561073f578082015181840152602081019050610724565b8381111561074e576000848401525b50505050565b6000601f19601f8301169050919050565b600061077082610705565b61077a8185610710565b935061078a818560208601610721565b61079381610754565b840191505092915050565b600060208201905081810360008301526107b88184610765565b905092915050565b6000604051905090565b600080fd5b600080fd5b6000819050919050565b6107e7816107d4565b81146107f257600080fd5b50565b600081359050610804816107de565b92915050565b6000602082840312156108205761081f6107ca565b5b600061082e848285016107f5565b91505092915050565b610840816107d4565b82525050565b600073ffffffffffffffffffffffffffffffffffffffff82169050919050565b600061087182610846565b9050919050565b61088181610866565b82525050565b600060c08201905061089c6000830189610837565b81810360208301526108ae8188610765565b905081810360408301526108c28187610765565b90506108d16060830186610837565b6108de6080830185610837565b6108eb60a0830184610878565b979650505050505050565b600060208201905061090b6000830184610837565b92915050565b600080fd5b600080fd5b7f4e487b7100000000000000000000000000000000000000000000000000000000600052604160045260246000fd5b61095382610754565b810181811067ffffffffffffffff821117156109725761097161091b565b5b80604052505050565b60006109856107c0565b9050610991828261094a565b919050565b600067ffffffffffffffff8211156109b1576109b061091b565b5b6109ba82610754565b9050602081019050919050565b82818337600083830152505050565b60006109e96109e484610996565b61097b565b905082815260208101848484011115610a0557610a04610916565b5b610a108482856109c7565b509392505050565b600082601f830112610a2d57610a2c610911565b5b8135610a3d8482602086016109d6565b91505092915050565b60008060408385031215610a5d57610a5c6107ca565b5b600083013567ffffffffffffffff811115610a7b57610a7a6107cf565b5b610a8785828601610a18565b925050602083013567ffffffffffffffff811115610aa857610aa76107cf565b5b610ab485828601610a18565b9150509250929050565b7f4e487b7100000000000000000000000000000000000000000000000000000000600052602260045260246000fd5b60006002820490506001821680610b0557607f821691505b602082108103610b1857610b17610abe565b5b50919050565b7f496d6167652073686f756c642062652075706c6f616465640000000000000000600082015250565b6000610b54601883610710565b9150610b5f82610b1e565b602082019050919050565b60006020820190508181036000830152610b8381610b47565b9050919050565b7f4465736372697074696f6e2073686f756c64206e6f7420626520656d70747900600082015250565b6000610bc0601f83610710565b9150610bcb82610b8a565b602082019050919050565b60006020820190508181036000830152610bef81610bb3565b9050919050565b7f4e487b7100000000000000000000000000000000000000000000000000000000600052601160045260246000fd5b6000610c30826107d4565b91507fffffffffffffffffffffffffffffffffffffffffffffffffffffffffffffffff8203610c6257610c61610bf6565b5b600182019050919050565b6000819050919050565b6000819050919050565b6000610c9c610c97610c9284610c6d565b610c77565b6107d4565b9050919050565b610cac81610c81565b82525050565b600060a082019050610cc76000830188610837565b8181036020830152610cd98187610765565b90508181036040830152610ced8186610765565b9050610cfc6060830185610837565b610d096080830184610ca3565b9695505050505050565b6000610d1e826107d4565b9150610d29836107d4565b9250827fffffffffffffffffffffffffffffffffffffffffffffffffffffffffffffffff03821115610d5e57610d5d610bf6565b5b828201905092915050565b60008190508160005260206000209050919050565b60008154610d8b81610aed565b610d958186610710565b94506001821660008114610db05760018114610dc257610df5565b60ff1983168652602086019350610df5565b610dcb85610d69565b60005b83811015610ded57815481890152600182019150602081019050610dce565b808801955050505b50505092915050565b600060a082019050610e136000830188610837565b8181036020830152610e258187610d7e565b9050610e346040830186610837565b610e416060830185610837565b610e4e6080830184610878565b969550505050505056fea26469706673582212208424f639b553bcdf3a851726645e81de8f423e2f0174296a236a7e8885f8a2ae64736f6c634300080e0033",
  "immutableReferences": {},
  "source": "// SPDX-License-Identifier: MIT\r\npragma solidity >=0.4.22 <0.9.0;\r\n\r\ncontract Kryptogram{\r\n    struct Post{\r\n        uint id;\r\n        string imgHash;\r\n        string description;\r\n        uint createdTime;\r\n        uint tipAmount;\r\n        address author;\r\n    }\r\n    \r\n    string public name = \"Kryptogram\";\r\n    uint public postsCount = 0;\r\n\r\n    mapping(uint => Post) public posts;\r\n\r\n    event PostCreated(\r\n        uint id,\r\n        string imgHash,\r\n        string description,\r\n        uint createdTime,\r\n        uint tipAmount,\r\n        address indexed author \r\n    );\r\n\r\n    event PostTipped(\r\n        uint id,\r\n        string imgHash,\r\n        uint tippedTime,\r\n        uint amountTipped,\r\n        address indexed donor,\r\n        address author\r\n    );\r\n\r\n    constructor(){}\r\n\r\n    // to create a new post\r\n    function createPost(string memory _imgHash,string memory _description) public {\r\n\r\n        //image hash should exist\r\n        require(bytes(_imgHash).length > 0,\"Image should be uploaded\");\r\n\r\n        //description should exist\r\n        require(bytes(_description).length > 0,\"Description should not be empty\");\r\n\r\n        postsCount++;\r\n\r\n        // create new post\r\n        posts[postsCount] = Post(\r\n            {\r\n                id: postsCount,\r\n                imgHash: _imgHash,\r\n                description: _description,\r\n                createdTime: block.timestamp,\r\n                tipAmount: 0,\r\n                author: msg.sender\r\n            }\r\n        );\r\n\r\n        // emit event \r\n        emit PostCreated(postsCount,_imgHash,_description,block.timestamp,0,msg.sender);\r\n    }\r\n\r\n    //to tip author\r\n    function tipPostAuthor(uint _id) public payable {\r\n        //making sure post id is valid\r\n        require(_id > 0 && _id <= postsCount);\r\n\r\n        //fetch the post\r\n        Post storage _post = posts[_id];\r\n        \r\n        //fetch the author\r\n        address payable author = payable(_post.author);\r\n        \r\n        //transfer ether to author\r\n        author.transfer(msg.value);\r\n        \r\n        //increment the tip amount\r\n        _post.tipAmount = _post.tipAmount + msg.value;\r\n\r\n        //emit event\r\n        emit PostTipped(_id,_post.imgHash,block.timestamp,msg.value,msg.sender,_post.author);\r\n    }\r\n\r\n}",
  "sourcePath": "D:\\Projects\\Etherium Dev\\Kryptogram\\contracts\\Kryptogram.sol",
  "compiler": {
    "name": "solc",
    "version": "0.8.14+commit.80d49f37.Emscripten.clang"
  },
  "schemaVersion": "3.4.7",
  "updatedAt": "2022-08-31T15:37:35.071Z",
  "networkType": "ethereum",
  "devdoc": {
    "kind": "dev",
    "methods": {},
    "version": 1
  },
  "userdoc": {
    "kind": "user",
    "methods": {},
    "version": 1
  }
}